IDFAT78TL292200192620220526.TXT 03062022182913
HHFATTLF229SP
D1000000000101062022ACM       FATACENSDOMINGW            159,60                                      GW29CR018200C2929SP                 0120220526                          0001Boleto              Pos C 41435023  SP
D1000000000201062022ACM       FATACENSDOMINGW            159,60                                      GW29CR018200C2929SP                 0120220526                          0001Boleto              Pos D 11211142  SP
D1000000000301062022ACM       FATACENSDOMINGW             10,64                                      GW29CR018200C2940DF                 0120220526                          0001Boleto              Pos C 41435023  DF
D1000000000401062022ACM       FATACENSDOMINGW             10,64                                      GW29CR018200C2940DF                 0120220526                          0001Boleto              Pos D 11211142  DF
D1000000000501062022ACM       FATACENSEMAILGW              0,02                                      GW29CR018200C2936PI                 0120220526                          0001Boleto              Pos C 41435023  PI
D1000000000601062022ACM       FATACENSEMAILGW              0,02                                      GW29CR018200C2936PI                 0120220526                          0001Boleto              Pos D 11211142  PI
D1000000000701062022ACM       FATGOOGLEGWSGW               9,07                                      GW29CR018200C2929SP                 0120220526                          0001Boleto              Pos C 41431077  SP
D1000000000801062022ACM       FATGOOGLEGWSGW               9,07                                      GW29CR018200C2929SP                 0120220526                          0001Boleto              Pos D 11211142  SP
D1000000000901062022ACM       FATO365CSPGW                36,95                                      GW29CR018200C2929SP                 0120220526                          0001Boleto              Pos C 41435025  SP
D1000000001001062022ACM       FATO365CSPGW                36,95                                      GW29CR018200C2929SP                 0120220526                          0001Boleto              Pos D 11211142  SP
FF000010          432,56