IDFAT55TB292200202620220526.TXT 03062022182906
HHFATTBRA29SP
D1000000000127052022FAT       FATGOOGLEGCPGW              89,04                                      GW29TR018233T2929SP                 2720220526                          9141Boleto              Pos C 41431077  SP
D1000000000227052022FAT       FATGOOGLEGCPGW              89,04                                      GW29TR018233T2929SP                 2720220526                          9141Boleto              Pos D 11215115  SP
D1000000000327052022FAT       FATGOOGLEGWSGW              33,34                                      GW29TR018233T2929SP                 2720220526                          9141Boleto              Pos C 41431077  SP
D1000000000427052022FAT       FATGOOGLEGWSGW              33,34                                      GW29TR018233T2929SP                 2720220526                          9141Boleto              Pos D 11215115  SP
D1000000000527052022FAT       FATO365CSPGW               910,08                                      GW29TR018233T2929SP                 2720220526                          9141Boleto              Pos C 41435025  SP
D1000000000627052022FAT       FATO365CSPGW               910,08                                      GW29TR018233T2929SP                 2720220526                          9141Boleto              Pos D 11215115  SP
D1000000000727052022FAT       FATSERASAPREMGW             29,34                                      GW29TR018233T2929SP                 2720220526                          9141Boleto              Pos C 41431068  SP
D1000000000827052022FAT       FATSERASAPREMGW             29,34                                      GW29TR018233T2929SP                 2720220526                          9141Boleto              Pos D 11215115  SP
FF000008         2123,60